{
  "_format": "hh-sol-artifact-1",
  "contractName": "MultiSigWallet",
  "sourceName": "contracts/multiSigWallet.sol",
  "abi": [
    {
      "inputs": [
        {
          "internalType": "address[]",
          "name": "_owners",
          "type": "address[]"
        },
        {
          "internalType": "uint256",
          "name": "_requiredApprovals",
          "type": "uint256"
        }
      ],
      "stateMutability": "nonpayable",
      "type": "constructor"
    },
    {
      "anonymous": false,
      "inputs": [
        {
          "indexed": true,
          "internalType": "address",
          "name": "owner",
          "type": "address"
        },
        {
          "indexed": true,
          "internalType": "uint256",
          "name": "txId",
          "type": "uint256"
        }
      ],
      "name": "Approve",
      "type": "event"
    },
    {
      "anonymous": false,
      "inputs": [
        {
          "indexed": true,
          "internalType": "address",
          "name": "sender",
          "type": "address"
        },
        {
          "indexed": false,
          "internalType": "uint256",
          "name": "amount",
          "type": "uint256"
        }
      ],
      "name": "Deposit",
      "type": "event"
    },
    {
      "anonymous": false,
      "inputs": [
        {
          "indexed": true,
          "internalType": "uint256",
          "name": "txId",
          "type": "uint256"
        }
      ],
      "name": "Execute",
      "type": "event"
    },
    {
      "anonymous": false,
      "inputs": [
        {
          "indexed": true,
          "internalType": "address",
          "name": "owner",
          "type": "address"
        },
        {
          "indexed": true,
          "internalType": "uint256",
          "name": "txId",
          "type": "uint256"
        }
      ],
      "name": "Revoke",
      "type": "event"
    },
    {
      "anonymous": false,
      "inputs": [
        {
          "indexed": true,
          "internalType": "uint256",
          "name": "txId",
          "type": "uint256"
        }
      ],
      "name": "Submit",
      "type": "event"
    },
    {
      "inputs": [
        {
          "internalType": "uint256",
          "name": "_txId",
          "type": "uint256"
        }
      ],
      "name": "approve",
      "outputs": [],
      "stateMutability": "nonpayable",
      "type": "function"
    },
    {
      "inputs": [
        {
          "internalType": "uint256",
          "name": "",
          "type": "uint256"
        },
        {
          "internalType": "address",
          "name": "",
          "type": "address"
        }
      ],
      "name": "approved",
      "outputs": [
        {
          "internalType": "bool",
          "name": "",
          "type": "bool"
        }
      ],
      "stateMutability": "view",
      "type": "function"
    },
    {
      "inputs": [
        {
          "internalType": "uint256",
          "name": "_txId",
          "type": "uint256"
        }
      ],
      "name": "execute",
      "outputs": [],
      "stateMutability": "nonpayable",
      "type": "function"
    },
    {
      "inputs": [
        {
          "internalType": "address",
          "name": "",
          "type": "address"
        }
      ],
      "name": "isOwner",
      "outputs": [
        {
          "internalType": "bool",
          "name": "",
          "type": "bool"
        }
      ],
      "stateMutability": "view",
      "type": "function"
    },
    {
      "inputs": [
        {
          "internalType": "uint256",
          "name": "",
          "type": "uint256"
        }
      ],
      "name": "owners",
      "outputs": [
        {
          "internalType": "address",
          "name": "",
          "type": "address"
        }
      ],
      "stateMutability": "view",
      "type": "function"
    },
    {
      "inputs": [],
      "name": "requiredApprovals",
      "outputs": [
        {
          "internalType": "uint256",
          "name": "",
          "type": "uint256"
        }
      ],
      "stateMutability": "view",
      "type": "function"
    },
    {
      "inputs": [
        {
          "internalType": "uint256",
          "name": "_txId",
          "type": "uint256"
        }
      ],
      "name": "revoke",
      "outputs": [],
      "stateMutability": "nonpayable",
      "type": "function"
    },
    {
      "inputs": [
        {
          "internalType": "address",
          "name": "_to",
          "type": "address"
        },
        {
          "internalType": "uint256",
          "name": "_value",
          "type": "uint256"
        },
        {
          "internalType": "bytes",
          "name": "_data",
          "type": "bytes"
        }
      ],
      "name": "submit",
      "outputs": [],
      "stateMutability": "nonpayable",
      "type": "function"
    },
    {
      "inputs": [
        {
          "internalType": "uint256",
          "name": "",
          "type": "uint256"
        }
      ],
      "name": "transactions",
      "outputs": [
        {
          "internalType": "address",
          "name": "to",
          "type": "address"
        },
        {
          "internalType": "uint256",
          "name": "value",
          "type": "uint256"
        },
        {
          "internalType": "bytes",
          "name": "data",
          "type": "bytes"
        },
        {
          "internalType": "bool",
          "name": "executed",
          "type": "bool"
        }
      ],
      "stateMutability": "view",
      "type": "function"
    },
    {
      "stateMutability": "payable",
      "type": "receive"
    }
  ],
  "bytecode": "0x60806040523480156200001157600080fd5b5060405162001ee238038062001ee28339818101604052810190620000379190620003dc565b600080805490501162000081576040517f08c379a0000000000000000000000000000000000000000000000000000000008152600401620000789062000586565b60405180910390fd5b60008111801562000093575081518111155b620000d5576040517f08c379a0000000000000000000000000000000000000000000000000000000008152600401620000cc90620005ca565b60405180910390fd5b60005b8251811015620002fc5760008382815181106200011e577f4e487b7100000000000000000000000000000000000000000000000000000000600052603260045260246000fd5b60200260200101519050600073ffffffffffffffffffffffffffffffffffffffff168173ffffffffffffffffffffffffffffffffffffffff1614156200019b576040517f08c379a00000000000000000000000000000000000000000000000000000000081526004016200019290620005a8565b60405180910390fd5b600160008273ffffffffffffffffffffffffffffffffffffffff1673ffffffffffffffffffffffffffffffffffffffff16815260200190815260200160002060009054906101000a900460ff16156200022b576040517f08c379a0000000000000000000000000000000000000000000000000000000008152600401620002229062000564565b60405180910390fd5b60018060008373ffffffffffffffffffffffffffffffffffffffff1673ffffffffffffffffffffffffffffffffffffffff16815260200190815260200160002060006101000a81548160ff0219169083151502179055506000819080600181540180825580915050600190039060005260206000200160009091909190916101000a81548173ffffffffffffffffffffffffffffffffffffffff021916908373ffffffffffffffffffffffffffffffffffffffff160217905550508080620002f3906200069e565b915050620000d8565b508060028190555050506200077e565b6000620003236200031d8462000620565b620005ec565b905080838252602082019050828560208602820111156200034357600080fd5b60005b858110156200037757816200035c888262000381565b84526020840193506020830192505060018101905062000346565b5050509392505050565b60008151905062000392816200074a565b92915050565b600082601f830112620003aa57600080fd5b8151620003bc8482602086016200030c565b91505092915050565b600081519050620003d68162000764565b92915050565b60008060408385031215620003f057600080fd5b600083015167ffffffffffffffff8111156200040b57600080fd5b620004198582860162000398565b92505060206200042c85828601620003c5565b9150509250929050565b6000620004456021836200064f565b91507f6f776e657220616c726561647920657869737473202f206e6f7420756e69717560008301527f65000000000000000000000000000000000000000000000000000000000000006020830152604082019050919050565b6000620004ad600f836200064f565b91507f6f776e65727320726571756972656400000000000000000000000000000000006000830152602082019050919050565b6000620004ef600d836200064f565b91507f696e76616c6964206f776e6572000000000000000000000000000000000000006000830152602082019050919050565b6000620005316017836200064f565b91507f696e76616c696420617070726f76616c206e756d6265720000000000000000006000830152602082019050919050565b600060208201905081810360008301526200057f8162000436565b9050919050565b60006020820190508181036000830152620005a1816200049e565b9050919050565b60006020820190508181036000830152620005c381620004e0565b9050919050565b60006020820190508181036000830152620005e58162000522565b9050919050565b6000604051905081810181811067ffffffffffffffff821117156200061657620006156200071b565b5b8060405250919050565b600067ffffffffffffffff8211156200063e576200063d6200071b565b5b602082029050602081019050919050565b600082825260208201905092915050565b60006200066d8262000674565b9050919050565b600073ffffffffffffffffffffffffffffffffffffffff82169050919050565b6000819050919050565b6000620006ab8262000694565b91507fffffffffffffffffffffffffffffffffffffffffffffffffffffffffffffffff821415620006e157620006e0620006ec565b5b600182019050919050565b7f4e487b7100000000000000000000000000000000000000000000000000000000600052601160045260246000fd5b7f4e487b7100000000000000000000000000000000000000000000000000000000600052604160045260246000fd5b620007558162000660565b81146200076157600080fd5b50565b6200076f8162000694565b81146200077b57600080fd5b50565b611754806200078e6000396000f3fe60806040526004361061008a5760003560e01c80638253951a116100595780638253951a146101b057806399c1aadc146101ed5780639ace38c214610218578063b759f95414610258578063fe0d94c114610281576100df565b8063025e7c27146100e457806314de327f1461012157806320c5429b1461014a5780632f54bf6e14610173576100df565b366100df573373ffffffffffffffffffffffffffffffffffffffff167fe1fffcc4923d04b559f4d29a8bfc6cda04eb5b0d3c460751c2402c5c5cc9109c346040516100d591906114ef565b60405180910390a2005b600080fd5b3480156100f057600080fd5b5061010b600480360381019061010691906110cc565b6102aa565b60405161011891906113ad565b60405180910390f35b34801561012d57600080fd5b5061014860048036038101906101439190611060565b6102e9565b005b34801561015657600080fd5b50610171600480360381019061016c91906110cc565b6104f2565b005b34801561017f57600080fd5b5061019a60048036038101906101959190611037565b6107ae565b6040516101a79190611414565b60405180910390f35b3480156101bc57600080fd5b506101d760048036038101906101d291906110f5565b6107ce565b6040516101e49190611414565b60405180910390f35b3480156101f957600080fd5b506102026107fd565b60405161020f91906114ef565b60405180910390f35b34801561022457600080fd5b5061023f600480360381019061023a91906110cc565b610803565b60405161024f94939291906113c8565b60405180910390f35b34801561026457600080fd5b5061027f600480360381019061027a91906110cc565b6108f8565b005b34801561028d57600080fd5b506102a860048036038101906102a391906110cc565b610bb7565b005b600081815481106102ba57600080fd5b906000526020600020016000915054906101000a900473ffffffffffffffffffffffffffffffffffffffff1681565b600160003373ffffffffffffffffffffffffffffffffffffffff1673ffffffffffffffffffffffffffffffffffffffff16815260200190815260200160002060009054906101000a900460ff16610375576040517f08c379a000000000000000000000000000000000000000000000000000000000815260040161036c9061148f565b60405180910390fd5b600360405180608001604052808673ffffffffffffffffffffffffffffffffffffffff16815260200185815260200184848080601f016020809104026020016040519081016040528093929190818152602001838380828437600081840152601f19601f82011690508083019250505050505050815260200160001515815250908060018154018082558091505060019003906000526020600020906004020160009091909190915060008201518160000160006101000a81548173ffffffffffffffffffffffffffffffffffffffff021916908373ffffffffffffffffffffffffffffffffffffffff16021790555060208201518160010155604082015181600201908051906020019061048b929190610f20565b5060608201518160030160006101000a81548160ff021916908315150217905550505060016003805490506104c09190611557565b7f08324b3d745b914e3abd4ffbfead91e3b78391a98c173202129215ab933adfbe60405160405180910390a250505050565b600160003373ffffffffffffffffffffffffffffffffffffffff1673ffffffffffffffffffffffffffffffffffffffff16815260200190815260200160002060009054906101000a900460ff1661057e576040517f08c379a00000000000000000000000000000000000000000000000000000000081526004016105759061148f565b60405180910390fd5b8060038054905081106105c6576040517f08c379a00000000000000000000000000000000000000000000000000000000081526004016105bd906114af565b60405180910390fd5b8160038181548110610601577f4e487b7100000000000000000000000000000000000000000000000000000000600052603260045260246000fd5b906000526020600020906004020160030160009054906101000a900460ff1661065f576040517f08c379a00000000000000000000000000000000000000000000000000000000081526004016106569061146f565b60405180910390fd5b6004600084815260200190815260200160002060003373ffffffffffffffffffffffffffffffffffffffff1673ffffffffffffffffffffffffffffffffffffffff16815260200190815260200160002060009054906101000a900460ff166106fc576040517f08c379a00000000000000000000000000000000000000000000000000000000081526004016106f39061142f565b60405180910390fd5b60006004600085815260200190815260200160002060003373ffffffffffffffffffffffffffffffffffffffff1673ffffffffffffffffffffffffffffffffffffffff16815260200190815260200160002060006101000a81548160ff021916908315150217905550823373ffffffffffffffffffffffffffffffffffffffff167fec9ab91322523c899ede7830ec9bfc992b5981cdcc27b91162fb23de5791117b60405160405180910390a3505050565b60016020528060005260406000206000915054906101000a900460ff1681565b60046020528160005260406000206020528060005260406000206000915091509054906101000a900460ff1681565b60025481565b6003818154811061081357600080fd5b90600052602060002090600402016000915090508060000160009054906101000a900473ffffffffffffffffffffffffffffffffffffffff169080600101549080600201805461086290611606565b80601f016020809104026020016040519081016040528092919081815260200182805461088e90611606565b80156108db5780601f106108b0576101008083540402835291602001916108db565b820191906000526020600020905b8154815290600101906020018083116108be57829003601f168201915b5050505050908060030160009054906101000a900460ff16905084565b600160003373ffffffffffffffffffffffffffffffffffffffff1673ffffffffffffffffffffffffffffffffffffffff16815260200190815260200160002060009054906101000a900460ff16610984576040517f08c379a000000000000000000000000000000000000000000000000000000000815260040161097b9061148f565b60405180910390fd5b8060038054905081106109cc576040517f08c379a00000000000000000000000000000000000000000000000000000000081526004016109c3906114af565b60405180910390fd5b816004600082815260200190815260200160002060003373ffffffffffffffffffffffffffffffffffffffff1673ffffffffffffffffffffffffffffffffffffffff16815260200190815260200160002060009054906101000a900460ff1615610a6b576040517f08c379a0000000000000000000000000000000000000000000000000000000008152600401610a629061144f565b60405180910390fd5b8260038181548110610aa6577f4e487b7100000000000000000000000000000000000000000000000000000000600052603260045260246000fd5b906000526020600020906004020160030160009054906101000a900460ff16610b04576040517f08c379a0000000000000000000000000000000000000000000000000000000008152600401610afb9061146f565b60405180910390fd5b60016004600086815260200190815260200160002060003373ffffffffffffffffffffffffffffffffffffffff1673ffffffffffffffffffffffffffffffffffffffff16815260200190815260200160002060006101000a81548160ff021916908315150217905550833373ffffffffffffffffffffffffffffffffffffffff167f90ec57f18fa7b15c6b8d5e4d1deb90796c74b2ff23d4d0cecad0cb42a96b312860405160405180910390a350505050565b806003805490508110610bff576040517f08c379a0000000000000000000000000000000000000000000000000000000008152600401610bf6906114af565b60405180910390fd5b8160038181548110610c3a577f4e487b7100000000000000000000000000000000000000000000000000000000600052603260045260246000fd5b906000526020600020906004020160030160009054906101000a900460ff16610c98576040517f08c379a0000000000000000000000000000000000000000000000000000000008152600401610c8f9061146f565b60405180910390fd5b600254610ca484610e25565b1015610caf57600080fd5b600060038481548110610ceb577f4e487b7100000000000000000000000000000000000000000000000000000000600052603260045260246000fd5b9060005260206000209060040201905060018160030160006101000a81548160ff02191690831515021790555060008160000160009054906101000a900473ffffffffffffffffffffffffffffffffffffffff1673ffffffffffffffffffffffffffffffffffffffff16826001015483600201604051610d6b9190611396565b60006040518083038185875af1925050503d8060008114610da8576040519150601f19603f3d011682016040523d82523d6000602084013e610dad565b606091505b5050905080610df1576040517f08c379a0000000000000000000000000000000000000000000000000000000008152600401610de8906114cf565b60405180910390fd5b847fddb556f1d2c1ec821e910b019d3685b229db152a0ecd517ca7e24b8bd713928960405160405180910390a25050505050565b6000805b600080549050811015610f1a57600460008481526020019081526020016000206000808381548110610e84577f4e487b7100000000000000000000000000000000000000000000000000000000600052603260045260246000fd5b9060005260206000200160009054906101000a900473ffffffffffffffffffffffffffffffffffffffff1673ffffffffffffffffffffffffffffffffffffffff1673ffffffffffffffffffffffffffffffffffffffff16815260200190815260200160002060009054906101000a900460ff1615610f095781610f0690611638565b91505b80610f1390611638565b9050610e29565b50919050565b828054610f2c90611606565b90600052602060002090601f016020900481019282610f4e5760008555610f95565b82601f10610f6757805160ff1916838001178555610f95565b82800160010185558215610f95579182015b82811115610f94578251825591602001919060010190610f79565b5b509050610fa29190610fa6565b5090565b5b80821115610fbf576000816000905550600101610fa7565b5090565b600081359050610fd2816116f0565b92915050565b60008083601f840112610fea57600080fd5b8235905067ffffffffffffffff81111561100357600080fd5b60208301915083600182028301111561101b57600080fd5b9250929050565b60008135905061103181611707565b92915050565b60006020828403121561104957600080fd5b600061105784828501610fc3565b91505092915050565b6000806000806060858703121561107657600080fd5b600061108487828801610fc3565b945050602061109587828801611022565b935050604085013567ffffffffffffffff8111156110b257600080fd5b6110be87828801610fd8565b925092505092959194509250565b6000602082840312156110de57600080fd5b60006110ec84828501611022565b91505092915050565b6000806040838503121561110857600080fd5b600061111685828601611022565b925050602061112785828601610fc3565b9150509250929050565b61113a8161158b565b82525050565b6111498161159d565b82525050565b600061115a8261151f565b611164818561152a565b93506111748185602086016115d3565b61117d816116df565b840191505092915050565b6000815461119581611606565b61119f818661153b565b945060018216600081146111ba57600181146111cb576111fe565b60ff198316865281860193506111fe565b6111d48561150a565b60005b838110156111f6578154818901526001820191506020810190506111d7565b838801955050505b50505092915050565b6000611214600f83611546565b91507f7478206e6f7420617070726f76656400000000000000000000000000000000006000830152602082019050919050565b6000611254601c83611546565b91507f7472616e73616374696f6e20617070726f76656420616c7265616479000000006000830152602082019050919050565b6000611294601c83611546565b91507f7472616e73616374696f6e20657865637574656420616c7265616479000000006000830152602082019050919050565b60006112d4600983611546565b91507f6e6f74206f776e657200000000000000000000000000000000000000000000006000830152602082019050919050565b6000611314601a83611546565b91507f7472616e73616374696f6e20646f6573206e6f742065786973740000000000006000830152602082019050919050565b6000611354601283611546565b91507f7472616e73616374696f6e206661696c656400000000000000000000000000006000830152602082019050919050565b611390816115c9565b82525050565b60006113a28284611188565b915081905092915050565b60006020820190506113c26000830184611131565b92915050565b60006080820190506113dd6000830187611131565b6113ea6020830186611387565b81810360408301526113fc818561114f565b905061140b6060830184611140565b95945050505050565b60006020820190506114296000830184611140565b92915050565b6000602082019050818103600083015261144881611207565b9050919050565b6000602082019050818103600083015261146881611247565b9050919050565b6000602082019050818103600083015261148881611287565b9050919050565b600060208201905081810360008301526114a8816112c7565b9050919050565b600060208201905081810360008301526114c881611307565b9050919050565b600060208201905081810360008301526114e881611347565b9050919050565b60006020820190506115046000830184611387565b92915050565b60008190508160005260206000209050919050565b600081519050919050565b600082825260208201905092915050565b600081905092915050565b600082825260208201905092915050565b6000611562826115c9565b915061156d836115c9565b9250828210156115805761157f611681565b5b828203905092915050565b6000611596826115a9565b9050919050565b60008115159050919050565b600073ffffffffffffffffffffffffffffffffffffffff82169050919050565b6000819050919050565b60005b838110156115f15780820151818401526020810190506115d6565b83811115611600576000848401525b50505050565b6000600282049050600182168061161e57607f821691505b60208210811415611632576116316116b0565b5b50919050565b6000611643826115c9565b91507fffffffffffffffffffffffffffffffffffffffffffffffffffffffffffffffff82141561167657611675611681565b5b600182019050919050565b7f4e487b7100000000000000000000000000000000000000000000000000000000600052601160045260246000fd5b7f4e487b7100000000000000000000000000000000000000000000000000000000600052602260045260246000fd5b6000601f19601f8301169050919050565b6116f98161158b565b811461170457600080fd5b50565b611710816115c9565b811461171b57600080fd5b5056fea2646970667358221220151f1953403fcb02efbaad1413a1cb470817f41fe17d1031a661115ce6e1a08364736f6c63430008000033",
  "linkReferences": {},
  "deployedLinkReferences": {}
}